{
  "_format": "hh-sol-artifact-1",
  "contractName": "ArbiterNFT",
  "sourceName": "contracts/ArbiterNFT.sol",
  "abi": [
    {
      "anonymous": false,
      "inputs": [
        {
          "indexed": true,
          "internalType": "address",
          "name": "owner",
          "type": "address"
        },
        {
          "indexed": true,
          "internalType": "address",
          "name": "approved",
          "type": "address"
        },
        {
          "indexed": true,
          "internalType": "uint256",
          "name": "tokenId",
          "type": "uint256"
        }
      ],
      "name": "Approval",
      "type": "event"
    },
    {
      "anonymous": false,
      "inputs": [
        {
          "indexed": true,
          "internalType": "address",
          "name": "owner",
          "type": "address"
        },
        {
          "indexed": true,
          "internalType": "address",
          "name": "operator",
          "type": "address"
        },
        {
          "indexed": false,
          "internalType": "bool",
          "name": "approved",
          "type": "bool"
        }
      ],
      "name": "ApprovalForAll",
      "type": "event"
    },
    {
      "anonymous": false,
      "inputs": [
        {
          "indexed": true,
          "internalType": "address",
          "name": "previousOwner",
          "type": "address"
        },
        {
          "indexed": true,
          "internalType": "address",
          "name": "newOwner",
          "type": "address"
        }
      ],
      "name": "OwnershipTransferred",
      "type": "event"
    },
    {
      "anonymous": false,
      "inputs": [
        {
          "indexed": true,
          "internalType": "address",
          "name": "from",
          "type": "address"
        },
        {
          "indexed": true,
          "internalType": "address",
          "name": "to",
          "type": "address"
        },
        {
          "indexed": true,
          "internalType": "uint256",
          "name": "tokenId",
          "type": "uint256"
        }
      ],
      "name": "Transfer",
      "type": "event"
    },
    {
      "inputs": [
        {
          "internalType": "address",
          "name": "_addressToWhitelist",
          "type": "address"
        }
      ],
      "name": "addUser",
      "outputs": [],
      "stateMutability": "nonpayable",
      "type": "function"
    },
    {
      "inputs": [
        {
          "internalType": "address",
          "name": "to",
          "type": "address"
        },
        {
          "internalType": "uint256",
          "name": "tokenId",
          "type": "uint256"
        }
      ],
      "name": "approve",
      "outputs": [],
      "stateMutability": "nonpayable",
      "type": "function"
    },
    {
      "inputs": [
        {
          "internalType": "address",
          "name": "owner",
          "type": "address"
        }
      ],
      "name": "balanceOf",
      "outputs": [
        {
          "internalType": "uint256",
          "name": "",
          "type": "uint256"
        }
      ],
      "stateMutability": "view",
      "type": "function"
    },
    {
      "inputs": [],
      "name": "createToken",
      "outputs": [
        {
          "internalType": "uint256",
          "name": "",
          "type": "uint256"
        }
      ],
      "stateMutability": "nonpayable",
      "type": "function"
    },
    {
      "inputs": [
        {
          "internalType": "uint256",
          "name": "tokenId",
          "type": "uint256"
        }
      ],
      "name": "getApproved",
      "outputs": [
        {
          "internalType": "address",
          "name": "",
          "type": "address"
        }
      ],
      "stateMutability": "view",
      "type": "function"
    },
    {
      "inputs": [
        {
          "internalType": "address",
          "name": "owner",
          "type": "address"
        },
        {
          "internalType": "address",
          "name": "operator",
          "type": "address"
        }
      ],
      "name": "isApprovedForAll",
      "outputs": [
        {
          "internalType": "bool",
          "name": "",
          "type": "bool"
        }
      ],
      "stateMutability": "view",
      "type": "function"
    },
    {
      "inputs": [],
      "name": "name",
      "outputs": [
        {
          "internalType": "string",
          "name": "",
          "type": "string"
        }
      ],
      "stateMutability": "view",
      "type": "function"
    },
    {
      "inputs": [],
      "name": "owner",
      "outputs": [
        {
          "internalType": "address",
          "name": "",
          "type": "address"
        }
      ],
      "stateMutability": "view",
      "type": "function"
    },
    {
      "inputs": [
        {
          "internalType": "uint256",
          "name": "tokenId",
          "type": "uint256"
        }
      ],
      "name": "ownerOf",
      "outputs": [
        {
          "internalType": "address",
          "name": "",
          "type": "address"
        }
      ],
      "stateMutability": "view",
      "type": "function"
    },
    {
      "inputs": [],
      "name": "renounceOwnership",
      "outputs": [],
      "stateMutability": "nonpayable",
      "type": "function"
    },
    {
      "inputs": [
        {
          "internalType": "address",
          "name": "from",
          "type": "address"
        },
        {
          "internalType": "address",
          "name": "to",
          "type": "address"
        },
        {
          "internalType": "uint256",
          "name": "tokenId",
          "type": "uint256"
        }
      ],
      "name": "safeTransferFrom",
      "outputs": [],
      "stateMutability": "nonpayable",
      "type": "function"
    },
    {
      "inputs": [
        {
          "internalType": "address",
          "name": "from",
          "type": "address"
        },
        {
          "internalType": "address",
          "name": "to",
          "type": "address"
        },
        {
          "internalType": "uint256",
          "name": "tokenId",
          "type": "uint256"
        },
        {
          "internalType": "bytes",
          "name": "_data",
          "type": "bytes"
        }
      ],
      "name": "safeTransferFrom",
      "outputs": [],
      "stateMutability": "nonpayable",
      "type": "function"
    },
    {
      "inputs": [
        {
          "internalType": "address",
          "name": "operator",
          "type": "address"
        },
        {
          "internalType": "bool",
          "name": "approved",
          "type": "bool"
        }
      ],
      "name": "setApprovalForAll",
      "outputs": [],
      "stateMutability": "nonpayable",
      "type": "function"
    },
    {
      "inputs": [
        {
          "internalType": "bytes4",
          "name": "interfaceId",
          "type": "bytes4"
        }
      ],
      "name": "supportsInterface",
      "outputs": [
        {
          "internalType": "bool",
          "name": "",
          "type": "bool"
        }
      ],
      "stateMutability": "view",
      "type": "function"
    },
    {
      "inputs": [],
      "name": "symbol",
      "outputs": [
        {
          "internalType": "string",
          "name": "",
          "type": "string"
        }
      ],
      "stateMutability": "view",
      "type": "function"
    },
    {
      "inputs": [
        {
          "internalType": "uint256",
          "name": "tokenId",
          "type": "uint256"
        }
      ],
      "name": "tokenURI",
      "outputs": [
        {
          "internalType": "string",
          "name": "",
          "type": "string"
        }
      ],
      "stateMutability": "view",
      "type": "function"
    },
    {
      "inputs": [
        {
          "internalType": "address",
          "name": "from",
          "type": "address"
        },
        {
          "internalType": "address",
          "name": "to",
          "type": "address"
        },
        {
          "internalType": "uint256",
          "name": "tokenId",
          "type": "uint256"
        }
      ],
      "name": "transferFrom",
      "outputs": [],
      "stateMutability": "nonpayable",
      "type": "function"
    },
    {
      "inputs": [
        {
          "internalType": "address",
          "name": "newOwner",
          "type": "address"
        }
      ],
      "name": "transferOwnership",
      "outputs": [],
      "stateMutability": "nonpayable",
      "type": "function"
    },
    {
      "inputs": [
        {
          "internalType": "address",
          "name": "_whitelistedAddress",
          "type": "address"
        }
      ],
      "name": "verifyUser",
      "outputs": [
        {
          "internalType": "bool",
          "name": "",
          "type": "bool"
        }
      ],
      "stateMutability": "view",
      "type": "function"
    }
  ],
  "bytecode": "0x60806040523480156200001157600080fd5b506040518060400160405280601081526020017f5265736f6c7574696f41726269746572000000000000000000000000000000008152506040518060400160405280600781526020017f4172626974657200000000000000000000000000000000000000000000000000815250816000908051906020019062000096929190620001ae565b508060019080519060200190620000af929190620001ae565b505050620000d2620000c6620000e060201b60201c565b620000e860201b60201c565b6001600781905550620002c3565b600033905090565b6000600660009054906101000a900473ffffffffffffffffffffffffffffffffffffffff16905081600660006101000a81548173ffffffffffffffffffffffffffffffffffffffff021916908373ffffffffffffffffffffffffffffffffffffffff1602179055508173ffffffffffffffffffffffffffffffffffffffff168173ffffffffffffffffffffffffffffffffffffffff167f8be0079c531659141344cd1fd0a4f28419497f9722a3daafe3b4186f6b6457e060405160405180910390a35050565b828054620001bc906200025e565b90600052602060002090601f016020900481019282620001e057600085556200022c565b82601f10620001fb57805160ff19168380011785556200022c565b828001600101855582156200022c579182015b828111156200022b5782518255916020019190600101906200020e565b5b5090506200023b91906200023f565b5090565b5b808211156200025a57600081600090555060010162000240565b5090565b600060028204905060018216806200027757607f821691505b602082108114156200028e576200028d62000294565b5b50919050565b7f4e487b7100000000000000000000000000000000000000000000000000000000600052602260045260246000fd5b612be380620002d36000396000f3fe608060405234801561001057600080fd5b50600436106101215760003560e01c806370a08231116100ad578063a22cb46511610071578063a22cb46514610308578063b88d4fde14610324578063c87b56dd14610340578063e985e9c514610370578063f2fde38b146103a057610121565b806370a0823114610274578063715018a6146102a45780638da5cb5b146102ae57806395d89b41146102cc5780639cbf9e36146102ea57610121565b806323b872dd116100f457806323b872dd146101c0578063421b2d8b146101dc57806342842e0e146101f85780634d813120146102145780636352211e1461024457610121565b806301ffc9a71461012657806306fdde0314610156578063081812fc14610174578063095ea7b3146101a4575b600080fd5b610140600480360381019061013b9190611ce7565b6103bc565b60405161014d91906120ed565b60405180910390f35b61015e61049e565b60405161016b9190612108565b60405180910390f35b61018e60048036038101906101899190611d39565b610530565b60405161019b9190612086565b60405180910390f35b6101be60048036038101906101b99190611cab565b6105b5565b005b6101da60048036038101906101d59190611ba5565b6106cd565b005b6101f660048036038101906101f19190611b40565b61072d565b005b610212600480360381019061020d9190611ba5565b610807565b005b61022e60048036038101906102299190611b40565b610827565b60405161023b91906120ed565b60405180910390f35b61025e60048036038101906102599190611d39565b610885565b60405161026b9190612086565b60405180910390f35b61028e60048036038101906102899190611b40565b610937565b60405161029b919061232a565b60405180910390f35b6102ac6109ef565b005b6102b6610a77565b6040516102c39190612086565b60405180910390f35b6102d4610aa1565b6040516102e19190612108565b60405180910390f35b6102f2610b33565b6040516102ff919061232a565b60405180910390f35b610322600480360381019061031d9190611c6f565b610cbc565b005b61033e60048036038101906103399190611bf4565b610cd2565b005b61035a60048036038101906103559190611d39565b610d34565b6040516103679190612108565b60405180910390f35b61038a60048036038101906103859190611b69565b610ddb565b60405161039791906120ed565b60405180910390f35b6103ba60048036038101906103b59190611b40565b610e6f565b005b60007f80ac58cd000000000000000000000000000000000000000000000000000000007bffffffffffffffffffffffffffffffffffffffffffffffffffffffff1916827bffffffffffffffffffffffffffffffffffffffffffffffffffffffff1916148061048757507f5b5e139f000000000000000000000000000000000000000000000000000000007bffffffffffffffffffffffffffffffffffffffffffffffffffffffff1916827bffffffffffffffffffffffffffffffffffffffffffffffffffffffff1916145b80610497575061049682610f67565b5b9050919050565b6060600080546104ad9061254f565b80601f01602080910402602001604051908101604052809291908181526020018280546104d99061254f565b80156105265780601f106104fb57610100808354040283529160200191610526565b820191906000526020600020905b81548152906001019060200180831161050957829003601f168201915b5050505050905090565b600061053b82610fd1565b61057a576040517f08c379a00000000000000000000000000000000000000000000000000000000081526004016105719061224a565b60405180910390fd5b6004600083815260200190815260200160002060009054906101000a900473ffffffffffffffffffffffffffffffffffffffff169050919050565b60006105c082610885565b90508073ffffffffffffffffffffffffffffffffffffffff168373ffffffffffffffffffffffffffffffffffffffff161415610631576040517f08c379a0000000000000000000000000000000000000000000000000000000008152600401610628906122ca565b60405180910390fd5b8073ffffffffffffffffffffffffffffffffffffffff1661065061103d565b73ffffffffffffffffffffffffffffffffffffffff16148061067f575061067e8161067961103d565b610ddb565b5b6106be576040517f08c379a00000000000000000000000000000000000000000000000000000000081526004016106b5906121ca565b60405180910390fd5b6106c88383611045565b505050565b6106de6106d861103d565b826110fe565b61071d576040517f08c379a0000000000000000000000000000000000000000000000000000000008152600401610714906122ea565b60405180910390fd5b6107288383836111dc565b505050565b61073561103d565b73ffffffffffffffffffffffffffffffffffffffff16610753610a77565b73ffffffffffffffffffffffffffffffffffffffff16146107a9576040517f08c379a00000000000000000000000000000000000000000000000000000000081526004016107a09061228a565b60405180910390fd5b6001600960008373ffffffffffffffffffffffffffffffffffffffff1673ffffffffffffffffffffffffffffffffffffffff16815260200190815260200160002060000160006101000a81548160ff02191690831515021790555050565b61082283838360405180602001604052806000815250610cd2565b505050565b600080600960008473ffffffffffffffffffffffffffffffffffffffff1673ffffffffffffffffffffffffffffffffffffffff16815260200190815260200160002060000160009054906101000a900460ff16905080915050919050565b6000806002600084815260200190815260200160002060009054906101000a900473ffffffffffffffffffffffffffffffffffffffff169050600073ffffffffffffffffffffffffffffffffffffffff168173ffffffffffffffffffffffffffffffffffffffff16141561092e576040517f08c379a00000000000000000000000000000000000000000000000000000000081526004016109259061220a565b60405180910390fd5b80915050919050565b60008073ffffffffffffffffffffffffffffffffffffffff168273ffffffffffffffffffffffffffffffffffffffff1614156109a8576040517f08c379a000000000000000000000000000000000000000000000000000000000815260040161099f906121ea565b60405180910390fd5b600360008373ffffffffffffffffffffffffffffffffffffffff1673ffffffffffffffffffffffffffffffffffffffff168152602001908152602001600020549050919050565b6109f761103d565b73ffffffffffffffffffffffffffffffffffffffff16610a15610a77565b73ffffffffffffffffffffffffffffffffffffffff1614610a6b576040517f08c379a0000000000000000000000000000000000000000000000000000000008152600401610a629061228a565b60405180910390fd5b610a7560006111e1565b565b6000600660009054906101000a900473ffffffffffffffffffffffffffffffffffffffff16905090565b606060018054610ab09061254f565b80601f0160208091040260200160405190810160405280929190818152602001828054610adc9061254f565b8015610b295780601f10610afe57610100808354040283529160200191610b29565b820191906000526020600020905b815481529060010190602001808311610b0c57829003601f168201915b5050505050905090565b600033600960008273ffffffffffffffffffffffffffffffffffffffff1673ffffffffffffffffffffffffffffffffffffffff16815260200190815260200160002060000160009054906101000a900460ff16610bc5576040517f08c379a0000000000000000000000000000000000000000000000000000000008152600401610bbc9061230a565b60405180910390fd5b6000600960003373ffffffffffffffffffffffffffffffffffffffff1673ffffffffffffffffffffffffffffffffffffffff1681526020019081526020016000206001015414610c4a576040517f08c379a0000000000000000000000000000000000000000000000000000000008152600401610c419061226a565b60405180910390fd5b610c5460086112a7565b6000610c6060086112bd565b9050610c6c33826112cb565b6001600960003373ffffffffffffffffffffffffffffffffffffffff1673ffffffffffffffffffffffffffffffffffffffff16815260200190815260200160002060010181905550809250505090565b610cce610cc761103d565b83836112e9565b5050565b610ce3610cdd61103d565b836110fe565b610d22576040517f08c379a0000000000000000000000000000000000000000000000000000000008152600401610d19906122ea565b60405180910390fd5b610d2e84848484611456565b50505050565b6060610d3f82610fd1565b610d7e576040517f08c379a0000000000000000000000000000000000000000000000000000000008152600401610d75906122aa565b60405180910390fd5b6000610d886114b2565b90506000815111610da85760405180602001604052806000815250610dd3565b80610db2846114c9565b604051602001610dc3929190612062565b6040516020818303038152906040525b915050919050565b6000600560008473ffffffffffffffffffffffffffffffffffffffff1673ffffffffffffffffffffffffffffffffffffffff16815260200190815260200160002060008373ffffffffffffffffffffffffffffffffffffffff1673ffffffffffffffffffffffffffffffffffffffff16815260200190815260200160002060009054906101000a900460ff16905092915050565b610e7761103d565b73ffffffffffffffffffffffffffffffffffffffff16610e95610a77565b73ffffffffffffffffffffffffffffffffffffffff1614610eeb576040517f08c379a0000000000000000000000000000000000000000000000000000000008152600401610ee29061228a565b60405180910390fd5b600073ffffffffffffffffffffffffffffffffffffffff168173ffffffffffffffffffffffffffffffffffffffff161415610f5b576040517f08c379a0000000000000000000000000000000000000000000000000000000008152600401610f529061214a565b60405180910390fd5b610f64816111e1565b50565b60007f01ffc9a7000000000000000000000000000000000000000000000000000000007bffffffffffffffffffffffffffffffffffffffffffffffffffffffff1916827bffffffffffffffffffffffffffffffffffffffffffffffffffffffff1916149050919050565b60008073ffffffffffffffffffffffffffffffffffffffff166002600084815260200190815260200160002060009054906101000a900473ffffffffffffffffffffffffffffffffffffffff1673ffffffffffffffffffffffffffffffffffffffff1614159050919050565b600033905090565b816004600083815260200190815260200160002060006101000a81548173ffffffffffffffffffffffffffffffffffffffff021916908373ffffffffffffffffffffffffffffffffffffffff160217905550808273ffffffffffffffffffffffffffffffffffffffff166110b883610885565b73ffffffffffffffffffffffffffffffffffffffff167f8c5be1e5ebec7d5bd14f71427d1e84f3dd0314c0f7b2291e5b200ac8c7c3b92560405160405180910390a45050565b600061110982610fd1565b611148576040517f08c379a000000000000000000000000000000000000000000000000000000000815260040161113f906121aa565b60405180910390fd5b600061115383610885565b90508073ffffffffffffffffffffffffffffffffffffffff168473ffffffffffffffffffffffffffffffffffffffff16148061119557506111948185610ddb565b5b806111d357508373ffffffffffffffffffffffffffffffffffffffff166111bb84610530565b73ffffffffffffffffffffffffffffffffffffffff16145b91505092915050565b505050565b6000600660009054906101000a900473ffffffffffffffffffffffffffffffffffffffff16905081600660006101000a81548173ffffffffffffffffffffffffffffffffffffffff021916908373ffffffffffffffffffffffffffffffffffffffff1602179055508173ffffffffffffffffffffffffffffffffffffffff168173ffffffffffffffffffffffffffffffffffffffff167f8be0079c531659141344cd1fd0a4f28419497f9722a3daafe3b4186f6b6457e060405160405180910390a35050565b6001816000016000828254019250508190555050565b600081600001549050919050565b6112e5828260405180602001604052806000815250611676565b5050565b8173ffffffffffffffffffffffffffffffffffffffff168373ffffffffffffffffffffffffffffffffffffffff161415611358576040517f08c379a000000000000000000000000000000000000000000000000000000000815260040161134f9061218a565b60405180910390fd5b80600560008573ffffffffffffffffffffffffffffffffffffffff1673ffffffffffffffffffffffffffffffffffffffff16815260200190815260200160002060008473ffffffffffffffffffffffffffffffffffffffff1673ffffffffffffffffffffffffffffffffffffffff16815260200190815260200160002060006101000a81548160ff0219169083151502179055508173ffffffffffffffffffffffffffffffffffffffff168373ffffffffffffffffffffffffffffffffffffffff167f17307eab39ab6107e8899845ad3d59bd9653f200f220920489ca2b5937696c318360405161144991906120ed565b60405180910390a3505050565b6114618484846111dc565b61146d848484846116d1565b6114ac576040517f08c379a00000000000000000000000000000000000000000000000000000000081526004016114a39061212a565b60405180910390fd5b50505050565b606060405180602001604052806000815250905090565b60606000821415611511576040518060400160405280600181526020017f30000000000000000000000000000000000000000000000000000000000000008152509050611671565b600082905060005b6000821461154357808061152c906125b2565b915050600a8261153c9190612434565b9150611519565b60008167ffffffffffffffff811115611585577f4e487b7100000000000000000000000000000000000000000000000000000000600052604160045260246000fd5b6040519080825280601f01601f1916602001820160405280156115b75781602001600182028036833780820191505090505b5090505b6000851461166a576001826115d09190612465565b9150600a856115df91906125fb565b60306115eb91906123de565b60f81b818381518110611627577f4e487b7100000000000000000000000000000000000000000000000000000000600052603260045260246000fd5b60200101907effffffffffffffffffffffffffffffffffffffffffffffffffffffffffffff1916908160001a905350600a856116639190612434565b94506115bb565b8093505050505b919050565b6116808383611868565b61168d60008484846116d1565b6116cc576040517f08c379a00000000000000000000000000000000000000000000000000000000081526004016116c39061212a565b60405180910390fd5b505050565b60006116f28473ffffffffffffffffffffffffffffffffffffffff16611a42565b1561185b578373ffffffffffffffffffffffffffffffffffffffff1663150b7a0261171b61103d565b8786866040518563ffffffff1660e01b815260040161173d94939291906120a1565b602060405180830381600087803b15801561175757600080fd5b505af192505050801561178857506040513d601f19601f820116820180604052508101906117859190611d10565b60015b61180b573d80600081146117b8576040519150601f19603f3d011682016040523d82523d6000602084013e6117bd565b606091505b50600081511415611803576040517f08c379a00000000000000000000000000000000000000000000000000000000081526004016117fa9061212a565b60405180910390fd5b805181602001fd5b63150b7a0260e01b7bffffffffffffffffffffffffffffffffffffffffffffffffffffffff1916817bffffffffffffffffffffffffffffffffffffffffffffffffffffffff191614915050611860565b600190505b949350505050565b600073ffffffffffffffffffffffffffffffffffffffff168273ffffffffffffffffffffffffffffffffffffffff1614156118d8576040517f08c379a00000000000000000000000000000000000000000000000000000000081526004016118cf9061222a565b60405180910390fd5b6118e181610fd1565b15611921576040517f08c379a00000000000000000000000000000000000000000000000000000000081526004016119189061216a565b60405180910390fd5b61192d60008383611a65565b6001600360008473ffffffffffffffffffffffffffffffffffffffff1673ffffffffffffffffffffffffffffffffffffffff168152602001908152602001600020600082825461197d91906123de565b92505081905550816002600083815260200190815260200160002060006101000a81548173ffffffffffffffffffffffffffffffffffffffff021916908373ffffffffffffffffffffffffffffffffffffffff160217905550808273ffffffffffffffffffffffffffffffffffffffff16600073ffffffffffffffffffffffffffffffffffffffff167fddf252ad1be2c89b69c2b068fc378daa952ba7f163c4a11628f55a4df523b3ef60405160405180910390a4611a3e60008383611a6a565b5050565b6000808273ffffffffffffffffffffffffffffffffffffffff163b119050919050565b505050565b505050565b6000611a82611a7d8461236a565b612345565b905082815260208101848484011115611a9a57600080fd5b611aa584828561250d565b509392505050565b600081359050611abc81612b51565b92915050565b600081359050611ad181612b68565b92915050565b600081359050611ae681612b7f565b92915050565b600081519050611afb81612b7f565b92915050565b600082601f830112611b1257600080fd5b8135611b22848260208601611a6f565b91505092915050565b600081359050611b3a81612b96565b92915050565b600060208284031215611b5257600080fd5b6000611b6084828501611aad565b91505092915050565b60008060408385031215611b7c57600080fd5b6000611b8a85828601611aad565b9250506020611b9b85828601611aad565b9150509250929050565b600080600060608486031215611bba57600080fd5b6000611bc886828701611aad565b9350506020611bd986828701611aad565b9250506040611bea86828701611b2b565b9150509250925092565b60008060008060808587031215611c0a57600080fd5b6000611c1887828801611aad565b9450506020611c2987828801611aad565b9350506040611c3a87828801611b2b565b925050606085013567ffffffffffffffff811115611c5757600080fd5b611c6387828801611b01565b91505092959194509250565b60008060408385031215611c8257600080fd5b6000611c9085828601611aad565b9250506020611ca185828601611ac2565b9150509250929050565b60008060408385031215611cbe57600080fd5b6000611ccc85828601611aad565b9250506020611cdd85828601611b2b565b9150509250929050565b600060208284031215611cf957600080fd5b6000611d0784828501611ad7565b91505092915050565b600060208284031215611d2257600080fd5b6000611d3084828501611aec565b91505092915050565b600060208284031215611d4b57600080fd5b6000611d5984828501611b2b565b91505092915050565b611d6b81612499565b82525050565b611d7a816124ab565b82525050565b6000611d8b8261239b565b611d9581856123b1565b9350611da581856020860161251c565b611dae816126e8565b840191505092915050565b6000611dc4826123a6565b611dce81856123c2565b9350611dde81856020860161251c565b611de7816126e8565b840191505092915050565b6000611dfd826123a6565b611e0781856123d3565b9350611e1781856020860161251c565b80840191505092915050565b6000611e306032836123c2565b9150611e3b826126f9565b604082019050919050565b6000611e536026836123c2565b9150611e5e82612748565b604082019050919050565b6000611e76601c836123c2565b9150611e8182612797565b602082019050919050565b6000611e996019836123c2565b9150611ea4826127c0565b602082019050919050565b6000611ebc602c836123c2565b9150611ec7826127e9565b604082019050919050565b6000611edf6038836123c2565b9150611eea82612838565b604082019050919050565b6000611f02602a836123c2565b9150611f0d82612887565b604082019050919050565b6000611f256029836123c2565b9150611f30826128d6565b604082019050919050565b6000611f486020836123c2565b9150611f5382612925565b602082019050919050565b6000611f6b602c836123c2565b9150611f768261294e565b604082019050919050565b6000611f8e602d836123c2565b9150611f998261299d565b604082019050919050565b6000611fb16020836123c2565b9150611fbc826129ec565b602082019050919050565b6000611fd4602f836123c2565b9150611fdf82612a15565b604082019050919050565b6000611ff76021836123c2565b915061200282612a64565b604082019050919050565b600061201a6031836123c2565b915061202582612ab3565b604082019050919050565b600061203d6025836123c2565b915061204882612b02565b604082019050919050565b61205c81612503565b82525050565b600061206e8285611df2565b915061207a8284611df2565b91508190509392505050565b600060208201905061209b6000830184611d62565b92915050565b60006080820190506120b66000830187611d62565b6120c36020830186611d62565b6120d06040830185612053565b81810360608301526120e28184611d80565b905095945050505050565b60006020820190506121026000830184611d71565b92915050565b600060208201905081810360008301526121228184611db9565b905092915050565b6000602082019050818103600083015261214381611e23565b9050919050565b6000602082019050818103600083015261216381611e46565b9050919050565b6000602082019050818103600083015261218381611e69565b9050919050565b600060208201905081810360008301526121a381611e8c565b9050919050565b600060208201905081810360008301526121c381611eaf565b9050919050565b600060208201905081810360008301526121e381611ed2565b9050919050565b6000602082019050818103600083015261220381611ef5565b9050919050565b6000602082019050818103600083015261222381611f18565b9050919050565b6000602082019050818103600083015261224381611f3b565b9050919050565b6000602082019050818103600083015261226381611f5e565b9050919050565b6000602082019050818103600083015261228381611f81565b9050919050565b600060208201905081810360008301526122a381611fa4565b9050919050565b600060208201905081810360008301526122c381611fc7565b9050919050565b600060208201905081810360008301526122e381611fea565b9050919050565b600060208201905081810360008301526123038161200d565b9050919050565b6000602082019050818103600083015261232381612030565b9050919050565b600060208201905061233f6000830184612053565b92915050565b600061234f612360565b905061235b8282612581565b919050565b6000604051905090565b600067ffffffffffffffff821115612385576123846126b9565b5b61238e826126e8565b9050602081019050919050565b600081519050919050565b600081519050919050565b600082825260208201905092915050565b600082825260208201905092915050565b600081905092915050565b60006123e982612503565b91506123f483612503565b9250827fffffffffffffffffffffffffffffffffffffffffffffffffffffffffffffffff038211156124295761242861262c565b5b828201905092915050565b600061243f82612503565b915061244a83612503565b92508261245a5761245961265b565b5b828204905092915050565b600061247082612503565b915061247b83612503565b92508282101561248e5761248d61262c565b5b828203905092915050565b60006124a4826124e3565b9050919050565b60008115159050919050565b60007fffffffff0000000000000000000000000000000000000000000000000000000082169050919050565b600073ffffffffffffffffffffffffffffffffffffffff82169050919050565b6000819050919050565b82818337600083830152505050565b60005b8381101561253a57808201518184015260208101905061251f565b83811115612549576000848401525b50505050565b6000600282049050600182168061256757607f821691505b6020821081141561257b5761257a61268a565b5b50919050565b61258a826126e8565b810181811067ffffffffffffffff821117156125a9576125a86126b9565b5b80604052505050565b60006125bd82612503565b91507fffffffffffffffffffffffffffffffffffffffffffffffffffffffffffffffff8214156125f0576125ef61262c565b5b600182019050919050565b600061260682612503565b915061261183612503565b9250826126215761262061265b565b5b828206905092915050565b7f4e487b7100000000000000000000000000000000000000000000000000000000600052601160045260246000fd5b7f4e487b7100000000000000000000000000000000000000000000000000000000600052601260045260246000fd5b7f4e487b7100000000000000000000000000000000000000000000000000000000600052602260045260246000fd5b7f4e487b7100000000000000000000000000000000000000000000000000000000600052604160045260246000fd5b6000601f19601f8301169050919050565b7f4552433732313a207472616e7366657220746f206e6f6e20455243373231526560008201527f63656976657220696d706c656d656e7465720000000000000000000000000000602082015250565b7f4f776e61626c653a206e6577206f776e657220697320746865207a65726f206160008201527f6464726573730000000000000000000000000000000000000000000000000000602082015250565b7f4552433732313a20746f6b656e20616c7265616479206d696e74656400000000600082015250565b7f4552433732313a20617070726f766520746f2063616c6c657200000000000000600082015250565b7f4552433732313a206f70657261746f7220717565727920666f72206e6f6e657860008201527f697374656e7420746f6b656e0000000000000000000000000000000000000000602082015250565b7f4552433732313a20617070726f76652063616c6c6572206973206e6f74206f7760008201527f6e6572206e6f7220617070726f76656420666f7220616c6c0000000000000000602082015250565b7f4552433732313a2062616c616e636520717565727920666f7220746865207a6560008201527f726f206164647265737300000000000000000000000000000000000000000000602082015250565b7f4552433732313a206f776e657220717565727920666f72206e6f6e657869737460008201527f656e7420746f6b656e0000000000000000000000000000000000000000000000602082015250565b7f4552433732313a206d696e7420746f20746865207a65726f2061646472657373600082015250565b7f4552433732313a20617070726f76656420717565727920666f72206e6f6e657860008201527f697374656e7420746f6b656e0000000000000000000000000000000000000000602082015250565b7f596f75206861766520616c7265616479206d696e74656420796f7572206d656d60008201527f6265727368697020746f6b656e00000000000000000000000000000000000000602082015250565b7f4f776e61626c653a2063616c6c6572206973206e6f7420746865206f776e6572600082015250565b7f4552433732314d657461646174613a2055524920717565727920666f72206e6f60008201527f6e6578697374656e7420746f6b656e0000000000000000000000000000000000602082015250565b7f4552433732313a20617070726f76616c20746f2063757272656e74206f776e6560008201527f7200000000000000000000000000000000000000000000000000000000000000602082015250565b7f4552433732313a207472616e736665722063616c6c6572206973206e6f74206f60008201527f776e6572206e6f7220617070726f766564000000000000000000000000000000602082015250565b7f57686974656c6973743a20596f75206e65656420746f2062652077686974656c60008201527f6973746564000000000000000000000000000000000000000000000000000000602082015250565b612b5a81612499565b8114612b6557600080fd5b50565b612b71816124ab565b8114612b7c57600080fd5b50565b612b88816124b7565b8114612b9357600080fd5b50565b612b9f81612503565b8114612baa57600080fd5b5056fea26469706673582212203e6ef9893159b193d246e75c1b13829fe69c7cd56d661226500f105ab5ef248e64736f6c63430008040033",
  "linkReferences": {},
  "deployedLinkReferences": {}
}